{
  "_format": "hh-sol-artifact-1",
  "contractName": "Exchange",
  "sourceName": "contracts/Exchange.sol",
  "abi": [
    {
      "inputs": [
        {
          "internalType": "address",
          "name": "_feeAccount",
          "type": "address"
        },
        {
          "internalType": "uint256",
          "name": "_feePercent",
          "type": "uint256"
        }
      ],
      "stateMutability": "nonpayable",
      "type": "constructor"
    },
    {
      "inputs": [
        {
          "internalType": "address",
          "name": "_token",
          "type": "address"
        },
        {
          "internalType": "uint256",
          "name": "amount",
          "type": "uint256"
        }
      ],
      "name": "depositToken",
      "outputs": [],
      "stateMutability": "nonpayable",
      "type": "function"
    },
    {
      "inputs": [],
      "name": "feeAccount",
      "outputs": [
        {
          "internalType": "address",
          "name": "",
          "type": "address"
        }
      ],
      "stateMutability": "view",
      "type": "function"
    },
    {
      "inputs": [],
      "name": "feePercent",
      "outputs": [
        {
          "internalType": "uint256",
          "name": "",
          "type": "uint256"
        }
      ],
      "stateMutability": "view",
      "type": "function"
    }
  ],
  "bytecode": "0x608060405234801561001057600080fd5b506040516104ad3803806104ad833981810160405281019061003291906100aa565b816000806101000a81548173ffffffffffffffffffffffffffffffffffffffff021916908373ffffffffffffffffffffffffffffffffffffffff160217905550806001819055505050610150565b60008151905061008f81610122565b92915050565b6000815190506100a481610139565b92915050565b600080604083850312156100bd57600080fd5b60006100cb85828601610080565b92505060206100dc85828601610095565b9150509250929050565b60006100f1826100f8565b9050919050565b600073ffffffffffffffffffffffffffffffffffffffff82169050919050565b6000819050919050565b61012b816100e6565b811461013657600080fd5b50565b61014281610118565b811461014d57600080fd5b50565b61034e8061015f6000396000f3fe608060405234801561001057600080fd5b50600436106100415760003560e01c8063338b5dea1461004657806365e17c9d146100625780637fd6f15c14610080575b600080fd5b610060600480360381019061005b919061019b565b61009e565b005b61006a610132565b604051610077919061021e565b60405180910390f35b610088610156565b6040516100959190610270565b60405180910390f35b8173ffffffffffffffffffffffffffffffffffffffff1663c0d84ce53330846040518463ffffffff1660e01b81526004016100db93929190610239565b602060405180830381600087803b1580156100f557600080fd5b505af1158015610109573d6000803e3d6000fd5b505050506040513d601f19601f8201168201806040525081019061012d91906101d7565b505050565b60008054906101000a900473ffffffffffffffffffffffffffffffffffffffff1681565b60015481565b60008135905061016b816102d3565b92915050565b600081519050610180816102ea565b92915050565b60008135905061019581610301565b92915050565b600080604083850312156101ae57600080fd5b60006101bc8582860161015c565b92505060206101cd85828601610186565b9150509250929050565b6000602082840312156101e957600080fd5b60006101f784828501610171565b91505092915050565b6102098161028b565b82525050565b610218816102c9565b82525050565b60006020820190506102336000830184610200565b92915050565b600060608201905061024e6000830186610200565b61025b6020830185610200565b610268604083018461020f565b949350505050565b6000602082019050610285600083018461020f565b92915050565b6000610296826102a9565b9050919050565b60008115159050919050565b600073ffffffffffffffffffffffffffffffffffffffff82169050919050565b6000819050919050565b6102dc8161028b565b81146102e757600080fd5b50565b6102f38161029d565b81146102fe57600080fd5b50565b61030a816102c9565b811461031557600080fd5b5056fea26469706673582212209de63e46cecd219ad0e59e5b4ba0956612d694d3a85ec3286a2188c5491c97b864736f6c63430008000033",
  "linkReferences": {},
  "deployedLinkReferences": {}
}