{
  "_format": "hh-sol-artifact-1",
  "contractName": "Token",
  "sourceName": "contracts/Token.sol",
  "abi": [
    {
      "inputs": [
        {
          "internalType": "string",
          "name": "_name",
          "type": "string"
        },
        {
          "internalType": "string",
          "name": "_symbol",
          "type": "string"
        },
        {
          "internalType": "uint256",
          "name": "_totalSupply",
          "type": "uint256"
        }
      ],
      "stateMutability": "nonpayable",
      "type": "constructor"
    },
    {
      "anonymous": false,
      "inputs": [
        {
          "indexed": true,
          "internalType": "address",
          "name": "owner",
          "type": "address"
        },
        {
          "indexed": true,
          "internalType": "address",
          "name": "spender",
          "type": "address"
        },
        {
          "indexed": false,
          "internalType": "uint256",
          "name": "value",
          "type": "uint256"
        }
      ],
      "name": "Approval",
      "type": "event"
    },
    {
      "anonymous": false,
      "inputs": [
        {
          "indexed": true,
          "internalType": "address",
          "name": "from",
          "type": "address"
        },
        {
          "indexed": true,
          "internalType": "address",
          "name": "to",
          "type": "address"
        },
        {
          "indexed": false,
          "internalType": "uint256",
          "name": "value",
          "type": "uint256"
        }
      ],
      "name": "Transfer",
      "type": "event"
    },
    {
      "inputs": [
        {
          "internalType": "address",
          "name": "_from",
          "type": "address"
        },
        {
          "internalType": "address",
          "name": "_to",
          "type": "address"
        },
        {
          "internalType": "uint256",
          "name": "_value",
          "type": "uint256"
        }
      ],
      "name": "TransferFrom",
      "outputs": [
        {
          "internalType": "bool",
          "name": "success",
          "type": "bool"
        }
      ],
      "stateMutability": "nonpayable",
      "type": "function"
    },
    {
      "inputs": [
        {
          "internalType": "address",
          "name": "",
          "type": "address"
        },
        {
          "internalType": "address",
          "name": "",
          "type": "address"
        }
      ],
      "name": "allowance",
      "outputs": [
        {
          "internalType": "uint256",
          "name": "",
          "type": "uint256"
        }
      ],
      "stateMutability": "view",
      "type": "function"
    },
    {
      "inputs": [
        {
          "internalType": "address",
          "name": "_spender",
          "type": "address"
        },
        {
          "internalType": "uint256",
          "name": "_value",
          "type": "uint256"
        }
      ],
      "name": "approve",
      "outputs": [
        {
          "internalType": "bool",
          "name": "success",
          "type": "bool"
        }
      ],
      "stateMutability": "nonpayable",
      "type": "function"
    },
    {
      "inputs": [
        {
          "internalType": "address",
          "name": "",
          "type": "address"
        }
      ],
      "name": "balanceOf",
      "outputs": [
        {
          "internalType": "uint256",
          "name": "",
          "type": "uint256"
        }
      ],
      "stateMutability": "view",
      "type": "function"
    },
    {
      "inputs": [],
      "name": "decimal",
      "outputs": [
        {
          "internalType": "uint256",
          "name": "",
          "type": "uint256"
        }
      ],
      "stateMutability": "view",
      "type": "function"
    },
    {
      "inputs": [],
      "name": "name",
      "outputs": [
        {
          "internalType": "string",
          "name": "",
          "type": "string"
        }
      ],
      "stateMutability": "view",
      "type": "function"
    },
    {
      "inputs": [],
      "name": "symbol",
      "outputs": [
        {
          "internalType": "string",
          "name": "",
          "type": "string"
        }
      ],
      "stateMutability": "view",
      "type": "function"
    },
    {
      "inputs": [],
      "name": "totalSupply",
      "outputs": [
        {
          "internalType": "uint256",
          "name": "",
          "type": "uint256"
        }
      ],
      "stateMutability": "view",
      "type": "function"
    },
    {
      "inputs": [
        {
          "internalType": "address",
          "name": "_to",
          "type": "address"
        },
        {
          "internalType": "uint256",
          "name": "_value",
          "type": "uint256"
        }
      ],
      "name": "transfer",
      "outputs": [
        {
          "internalType": "bool",
          "name": "success",
          "type": "bool"
        }
      ],
      "stateMutability": "nonpayable",
      "type": "function"
    }
  ],
  "bytecode": "0x608060405260126002553480156200001657600080fd5b50604051620012ca380380620012ca83398181016040528101906200003c91906200021a565b826000908051906020019062000054929190620000e1565b5081600190805190602001906200006d929190620000e1565b50600254600a6200007f919062000364565b816200008c9190620004a1565b600381905550600354600460003373ffffffffffffffffffffffffffffffffffffffff1673ffffffffffffffffffffffffffffffffffffffff168152602001908152602001600020819055505050506200062c565b828054620000ef9062000542565b90600052602060002090601f0160209004810192826200011357600085556200015f565b82601f106200012e57805160ff19168380011785556200015f565b828001600101855582156200015f579182015b828111156200015e57825182559160200191906001019062000141565b5b5090506200016e919062000172565b5090565b5b808211156200018d57600081600090555060010162000173565b5090565b6000620001a8620001a284620002d6565b620002a2565b905082815260208101848484011115620001c157600080fd5b620001ce8482856200050c565b509392505050565b600082601f830112620001e857600080fd5b8151620001fa84826020860162000191565b91505092915050565b600081519050620002148162000612565b92915050565b6000806000606084860312156200023057600080fd5b600084015167ffffffffffffffff8111156200024b57600080fd5b6200025986828701620001d6565b935050602084015167ffffffffffffffff8111156200027757600080fd5b6200028586828701620001d6565b9250506040620002988682870162000203565b9150509250925092565b6000604051905081810181811067ffffffffffffffff82111715620002cc57620002cb620005d6565b5b8060405250919050565b600067ffffffffffffffff821115620002f457620002f3620005d6565b5b601f19601f8301169050602081019050919050565b6000808291508390505b60018511156200035b5780860481111562000333576200033262000578565b5b6001851615620003435780820291505b8081029050620003538562000605565b945062000313565b94509492505050565b6000620003718262000502565b91506200037e8362000502565b9250620003ad7fffffffffffffffffffffffffffffffffffffffffffffffffffffffffffffffff8484620003b5565b905092915050565b600082620003c757600190506200049a565b81620003d757600090506200049a565b8160018114620003f05760028114620003fb5762000431565b60019150506200049a565b60ff84111562000410576200040f62000578565b5b8360020a9150848211156200042a576200042962000578565b5b506200049a565b5060208310610133831016604e8410600b84101617156200046b5782820a90508381111562000465576200046462000578565b5b6200049a565b6200047a848484600162000309565b9250905081840481111562000494576200049362000578565b5b81810290505b9392505050565b6000620004ae8262000502565b9150620004bb8362000502565b9250817fffffffffffffffffffffffffffffffffffffffffffffffffffffffffffffffff0483118215151615620004f757620004f662000578565b5b828202905092915050565b6000819050919050565b60005b838110156200052c5780820151818401526020810190506200050f565b838111156200053c576000848401525b50505050565b600060028204905060018216806200055b57607f821691505b60208210811415620005725762000571620005a7565b5b50919050565b7f4e487b7100000000000000000000000000000000000000000000000000000000600052601160045260246000fd5b7f4e487b7100000000000000000000000000000000000000000000000000000000600052602260045260246000fd5b7f4e487b7100000000000000000000000000000000000000000000000000000000600052604160045260246000fd5b60008160011c9050919050565b6200061d8162000502565b81146200062957600080fd5b50565b610c8e806200063c6000396000f3fe608060405234801561001057600080fd5b50600436106100935760003560e01c806376809ce31161006657806376809ce31461013457806395d89b4114610152578063a9059cbb14610170578063c0d84ce5146101a0578063dd62ed3e146101d057610093565b806306fdde0314610098578063095ea7b3146100b657806318160ddd146100e657806370a0823114610104575b600080fd5b6100a0610200565b6040516100ad9190610a2b565b60405180910390f35b6100d060048036038101906100cb919061097d565b61028e565b6040516100dd9190610a10565b60405180910390f35b6100ee6103b9565b6040516100fb9190610a4d565b60405180910390f35b61011e600480360381019061011991906108c9565b6103bf565b60405161012b9190610a4d565b60405180910390f35b61013c6103d7565b6040516101499190610a4d565b60405180910390f35b61015a6103dd565b6040516101679190610a2b565b60405180910390f35b61018a6004803603810190610185919061097d565b61046b565b6040516101979190610a10565b60405180910390f35b6101ba60048036038101906101b5919061092e565b6104bc565b6040516101c79190610a10565b60405180910390f35b6101ea60048036038101906101e591906108f2565b6106a0565b6040516101f79190610a4d565b60405180910390f35b6000805461020d90610b89565b80601f016020809104026020016040519081016040528092919081815260200182805461023990610b89565b80156102865780601f1061025b57610100808354040283529160200191610286565b820191906000526020600020905b81548152906001019060200180831161026957829003601f168201915b505050505081565b60008073ffffffffffffffffffffffffffffffffffffffff168373ffffffffffffffffffffffffffffffffffffffff1614156102c957600080fd5b81600560003373ffffffffffffffffffffffffffffffffffffffff1673ffffffffffffffffffffffffffffffffffffffff16815260200190815260200160002060008573ffffffffffffffffffffffffffffffffffffffff1673ffffffffffffffffffffffffffffffffffffffff168152602001908152602001600020819055508273ffffffffffffffffffffffffffffffffffffffff163373ffffffffffffffffffffffffffffffffffffffff167f8c5be1e5ebec7d5bd14f71427d1e84f3dd0314c0f7b2291e5b200ac8c7c3b925846040516103a79190610a4d565b60405180910390a36001905092915050565b60035481565b60046020528060005260406000206000915090505481565b60025481565b600180546103ea90610b89565b80601f016020809104026020016040519081016040528092919081815260200182805461041690610b89565b80156104635780601f1061043857610100808354040283529160200191610463565b820191906000526020600020905b81548152906001019060200180831161044657829003601f168201915b505050505081565b60008073ffffffffffffffffffffffffffffffffffffffff168373ffffffffffffffffffffffffffffffffffffffff1614156104a657600080fd5b6104b13384846106c5565b506001905092915050565b6000600560008573ffffffffffffffffffffffffffffffffffffffff1673ffffffffffffffffffffffffffffffffffffffff16815260200190815260200160002060003373ffffffffffffffffffffffffffffffffffffffff1673ffffffffffffffffffffffffffffffffffffffff1681526020019081526020016000205482111561054757600080fd5b600073ffffffffffffffffffffffffffffffffffffffff168373ffffffffffffffffffffffffffffffffffffffff16141561058157600080fd5b81600560008673ffffffffffffffffffffffffffffffffffffffff1673ffffffffffffffffffffffffffffffffffffffff16815260200190815260200160002060003373ffffffffffffffffffffffffffffffffffffffff1673ffffffffffffffffffffffffffffffffffffffff168152602001908152602001600020546106099190610ada565b600560008673ffffffffffffffffffffffffffffffffffffffff1673ffffffffffffffffffffffffffffffffffffffff16815260200190815260200160002060003373ffffffffffffffffffffffffffffffffffffffff1673ffffffffffffffffffffffffffffffffffffffff168152602001908152602001600020819055506106948484846106c5565b50600190509392505050565b6005602052816000526040600020602052806000526040600020600091509150505481565b600081600460008673ffffffffffffffffffffffffffffffffffffffff1673ffffffffffffffffffffffffffffffffffffffff16815260200190815260200160002054101561071357600080fd5b81600460008673ffffffffffffffffffffffffffffffffffffffff1673ffffffffffffffffffffffffffffffffffffffff1681526020019081526020016000205461075e9190610ada565b600460008673ffffffffffffffffffffffffffffffffffffffff1673ffffffffffffffffffffffffffffffffffffffff1681526020019081526020016000208190555081600460008573ffffffffffffffffffffffffffffffffffffffff1673ffffffffffffffffffffffffffffffffffffffff168152602001908152602001600020546107ec9190610a84565b600460008573ffffffffffffffffffffffffffffffffffffffff1673ffffffffffffffffffffffffffffffffffffffff168152602001908152602001600020819055508273ffffffffffffffffffffffffffffffffffffffff168473ffffffffffffffffffffffffffffffffffffffff167fddf252ad1be2c89b69c2b068fc378daa952ba7f163c4a11628f55a4df523b3ef8460405161088c9190610a4d565b60405180910390a3600190509392505050565b6000813590506108ae81610c2a565b92915050565b6000813590506108c381610c41565b92915050565b6000602082840312156108db57600080fd5b60006108e98482850161089f565b91505092915050565b6000806040838503121561090557600080fd5b60006109138582860161089f565b92505060206109248582860161089f565b9150509250929050565b60008060006060848603121561094357600080fd5b60006109518682870161089f565b93505060206109628682870161089f565b9250506040610973868287016108b4565b9150509250925092565b6000806040838503121561099057600080fd5b600061099e8582860161089f565b92505060206109af858286016108b4565b9150509250929050565b6109c281610b20565b82525050565b60006109d382610a68565b6109dd8185610a73565b93506109ed818560208601610b56565b6109f681610c19565b840191505092915050565b610a0a81610b4c565b82525050565b6000602082019050610a2560008301846109b9565b92915050565b60006020820190508181036000830152610a4581846109c8565b905092915050565b6000602082019050610a626000830184610a01565b92915050565b600081519050919050565b600082825260208201905092915050565b6000610a8f82610b4c565b9150610a9a83610b4c565b9250827fffffffffffffffffffffffffffffffffffffffffffffffffffffffffffffffff03821115610acf57610ace610bbb565b5b828201905092915050565b6000610ae582610b4c565b9150610af083610b4c565b925082821015610b0357610b02610bbb565b5b828203905092915050565b6000610b1982610b2c565b9050919050565b60008115159050919050565b600073ffffffffffffffffffffffffffffffffffffffff82169050919050565b6000819050919050565b60005b83811015610b74578082015181840152602081019050610b59565b83811115610b83576000848401525b50505050565b60006002820490506001821680610ba157607f821691505b60208210811415610bb557610bb4610bea565b5b50919050565b7f4e487b7100000000000000000000000000000000000000000000000000000000600052601160045260246000fd5b7f4e487b7100000000000000000000000000000000000000000000000000000000600052602260045260246000fd5b6000601f19601f8301169050919050565b610c3381610b0e565b8114610c3e57600080fd5b50565b610c4a81610b4c565b8114610c5557600080fd5b5056fea26469706673582212209503d525e12030bfdb139279ef2eb8310ac02c807a9fb4c13c51a266650344f264736f6c63430008000033",
  "linkReferences": {},
  "deployedLinkReferences": {}
}